:100000005BC0F2C174C073C072C071C070C06FC0F9
:100010006EC06DC06CC0E6C36CC369C068C067C009
:1000200066C065C064C00403090410036100730066
:1000300069006F002E0070006C002803550053000B
:1000400042002D00520053003200330032002000E5
:1000500028006D006F006F002D00630064006300D6
:1000600029001201010102000008C016E10500018B
:10007000010200010902430002010080320904006C
:1000800000010202010005240010010424020205FF
:100090002406000105240103010705830301000272
:1000A00009040100020A000000070501020800001F
:1000B000070581020800000011241FBECFE5D4E02F
:1000C000DEBFCDBF10E0A0E6B0E0EAE0F8E002C09D
:1000D00005900D92A236B107D9F710E0A2E6B0E084
:1000E00001C01D92A03BB107E1F742D38CC388CF7A
:1000F00085B7826085BF8BB780648BBF8BE48093AC
:10010000700080939B008AE580936F0080939A0033
:1001100008951F93CF93DF9360918000635067FD34
:10012000ABC080917D00CCE0D0E0C81BD109CC579A
:10013000DF4F80917C00803118F4CE0103D396C04C
:100140008D3209F083C0683009F090C083EC809351
:1001500064008AE580936000109262008881807656
:1001600021F0CE0184D2282F5EC09A8110926D00BA
:100170008981882321F410926E0022E04DC08530E1
:1001800019F49093810047C0863079F58B818130D6
:1001900011F0823021F4CE0156D2282F22C08330B4
:1001A000F9F48A81882341F486E290E090937F00FD
:1001B00080937E0024E015C0813041F48AE290E013
:1001C00090937F0080937E0020E10BC0823041F449
:1001D0008AE390E090937F0080937E0028E201C044
:1001E00020E080E4809362001EC0883021F421E08A
:1001F00083E890E013C0893019F4909383000BC01A
:100200008A3011F421E008C08B3029F48BE480930C
:10021000700080939B0020E08DE690E090937F003B
:1002200080937E0009C02F3F39F4888187FD2E819D
:1002300080E88093620006C08F81882319F48E8144
:10024000821708F0822F8093610010C080916200B5
:1002500087FF0CC0CE0117D28F3F21F48EE180932F
:10026000600004C0882311F010926100809180002A
:10027000181614F4109280008091600084FF49C029
:10028000809161008F3F09F444C0182F893008F035
:1002900018E0811B809361008091640098E88927B1
:1002A00080936400112341F120917E0030917F0002
:1002B0008091620086FF0DC0A5E6B0E080E090E08E
:1002C000F901E80FF91FE491ED9301961817C1F7B2
:1002D00008C0912FD901E5E6F0E08D91819391500E
:1002E000E1F71150812F90E01F5F0196820F931F5D
:1002F00090937F0080937E0085E690E0612F70D020
:10030000612F6C5F6C3019F08FEF80936100609308
:10031000600094E180B38C7031F49150D9F7109261
:10032000810010927B00DF91CF911F9108951F9360
:10033000DC01162F80919A0084FF07C080919B00FA
:1003400098E8892780939B0003C08AE580939A00F0
:10035000912FECE9F0E08D91819391501916DCF327
:100360008CE990E0612F3CD01C5F10939A001F91A4
:1003700008951F93DC01162F80916F0084FF07C042
:100380008091700098E889278093700003C08AE507
:1003900080936F00912FE1E7F0E08D918193915070
:1003A0001916DCF381E790E0612F1AD01C5F1093DF
:1003B0006F001F910895A82FB92F80E090E041E0D1
:1003C00050EA609530E009C02D9182279795879576
:1003D00010F084279527305EC8F36F5FA8F3089567
:1003E000EADF8D939D930895CF93CFB7CF93DF939B
:1003F000C395839BE9F7839B0BC0839B09C0839BB9
:1004000007C0839B05C0839B03C0839B01C08EC034
:100410006F93C0917D00DD27CC57DF4F2F9365E5AB
:10042000839B03C02F916F91E6CF0F931F934F9340
:1004300020E040E15F9300B30C7003FB27F93F938A
:1004400050E03BE039C01C7040642F77012F5F5FA4
:100450001EC0406810B31C702F7752501FC04064FC
:1004600000B32F770C70D1F15F5F00C023C04062F2
:1004700010B32F771C7091F15F5F00C025C00C7026
:100480001027515012F45D5F0000115027952C3F4A
:1004900010B3C8F61C700127015027952C3FC8F6F1
:1004A0004227499300B30C7010274F7311502795C2
:1004B0002C3FA8F64695469510B31C7079F001279D
:1004C000015027952C3F98F66B5A60F3315000B3DA
:1004D000B0F600C010E41ABF00271CC03B50319595
:1004E000C31BD04010E41ABF0881033C21F10B3438
:1004F00011F120917B001981110F1213EDCF4A8168
:10050000441F093669F10D3211F0013E29F74F7091
:1005100009F0042F009382003F915F914F911F914A
:100520000F912F916F91CAB7C6FD62CFDF91CF9126
:10053000CFBFCF91189520918200222369F31091AB
:1005400080001123E9F53430EAF1309380002093E4
:100550007C0010917D003BE0311B30937D0032C068
:1005600000918000013064F50AE54F7049F4309144
:10057000600034FD28C000936000C4E6D0E027C0CE
:10058000433049F030916F0034FD1DC000936F007F
:10059000C0E7D0E01CC030919A0034FD14C0009335
:1005A0009A00CBE9D0E013C0052710E000C000009E
:1005B00002BB1AC0052710E0221F1DC010E021C099
:1005C0004AE502C032ED432FC4E1D0E032E011B37E
:1005D0001C60939A02B311BB5CE020E865E320FF46
:1005E000052702BB279517951C3FF0F66695B8F7CF
:1005F000B1F720FF052702BB279517951C3FD0F6C2
:100600002795179517FF052700001C3F02BBB0F682
:1006100029913A9519F7037F10918100110FC65166
:10062000D04002BB11F010937B0010E41ABF0860A9
:1006300011B3137F402F437F54E05A95F1F702BB6B
:1006400011BB42BB69CFFC018381813041F482E65A
:1006500090E090937F0080937E0082E1089584E78C
:1006600090E090937F0080937E0083E40895FC01E6
:1006700080818076803229F48181803211F48FEF7D
:10068000089580E00895FC0134812581968181815F
:10069000823C11F480E10FC0813E11F481E20BC075
:1006A000863911F483E307C08B3411F487E603C065
:1006B000853211F48FEC89B99930C8F4233008F0F1
:1006C00020E0313009F430E0213011F420EB03C098
:1006D0002295207F20683695330F330F330F892FF3
:1006E00090E00597880F991F382B322B30BD81E0A1
:1006F00008951F920F920FB60F9211248F939F931C
:10070000EF93FF93559878949091AF00E92FF0E024
:10071000EA55FF4F80818CB99F5F9093AF00909115
:10072000AF008091AE00981719F41092800001C0BC
:10073000559AFF91EF919F918F910F900FBE0F905F
:100740001F901895DC0120E030E007C08D91F90181
:10075000EA55FF4F80832F5F3F4F2617B8F3109263
:10076000AF006093AE008FEF80938000559A08959C
:100770001F93222483EF82BB8CE081BB11BA80EDF2
:1007800089B982E08BB988E98AB9B2DCA49A7894F5
:1007900010E0A895BEDC80916F0084FFFACF8091B5
:1007A00063002816B9F0821518F4122D181B02C028
:1007B000182F1195193008F018E090E080509E4FE6
:1007C000612FD7DD80916300810F80936300AC9A25
:1007D00011E0DFCF112321F080E090E060E0C9DD7F
:1007E000AC98D6CF1F921CB00F920FB6EF93E22DAC
:1007F00023947894FF93F2E01082FF91EF910FBE63
:0A0800000F901F901895F894FFCF99
:02080A005AFF93
:00000001FF
