:1000000062C0F9C17BC07AC079C078C077C076C0C1
:1000100075C074C073C072C071C070C06FC06EC054
:100020006DC06CC0F7C36DC369C068C067C066C0EF
:1000300065C064C004030904100361007300690013
:100040006F002E0070006C00280355005300420022
:100050002D005200530032003300320020002800EF
:100060006D006F006F002D006300640063002900C5
:100070001201010102000008C016E10500010102A1
:10008000000109024300020100803209040000015E
:1000900002020100052400100104240202052406C6
:1000A000000105240103010705830301000209047F
:1000B0000100020A00000007050102080000070510
:1000C00081020800000011241FBECFEFD4E0DEBF84
:1000D000CDBF11E0A0E0B1E0ECE3F8E002C0059094
:1000E0000D92A230B107D9F711E0A2E0B1E001C052
:1000F0001D92A035B107E1F750D39EC381CFE9E649
:10010000F0E0808182608083E89A8BE48093100124
:1001100080933B018AE580930F0180933A01089513
:100120001F93CF93DF9360912001635067FDABC0B5
:1001300080911D01CCE0D0E0C81BD109CC5DDE4F21
:1001400080911C01803118F4CE010DD396C08D3200
:1001500009F083C0683009F090C083EC80930401FB
:100160008AE580930001109202018881807621F057
:10017000CE0184D2282F5EC09A8110920D01898110
:10018000882321F410920E0122E04DC0853019F42D
:100190009093210147C0863079F58B81813011F031
:1001A000823021F4CE0156D2282F22C08330F9F4B8
:1001B0008A81882341F484E390E090931F01809327
:1001C0001E0124E015C0813041F488E390E0909353
:1001D0001F0180931E0120E10BC0823041F488E4AE
:1001E00090E090931F0180931E0128E201C020E05F
:1001F00080E4809302011EC0883021F421E083E274
:1002000091E013C0893019F4909323010BC08A3018
:1002100011F421E008C08B3029F48BE480931001A5
:1002200080933B0120E08DE091E090931F0180934B
:100230001E0109C02F3F39F4888187FD2E8180E897
:100240008093020106C08F81882319F48E81821762
:1002500008F0822F8093010110C08091020187FF76
:100260000CC0CE0117D28F3F21F48EE180930001A4
:1002700004C0882311F0109201018091200118160A
:1002800014F4109220018091000184FF49C08091F4
:1002900001018F3F09F444C0182F893008F018E09D
:1002A000811B809301018091040198E88927809344
:1002B0000401112341F120911E0130911F01809111
:1002C000020186FF0DC0A5E0B1E080E090E0F901F9
:1002D000E80FF91FE491ED9301961817C1F708C0D4
:1002E000912FD901E5E0F1E08D9181939150E1F7F3
:1002F0001150812F90E01F5F0196820F931F909302
:100300001F0180931E0185E091E0612F70D0612F65
:100310006C5F6C3019F08FEF8093010160930001E6
:1003200094E189B18C7031F49150D9F71092210188
:1003300010921B01DF91CF911F9108951F93DC0153
:10034000162F80913A0184FF07C080913B0198E805
:10035000892780933B0103C08AE580933A01912F5E
:10036000ECE3F1E08D91819391501916DCF38CE36D
:1003700091E0612F3CD01C5F10933A011F910895CA
:100380001F93DC01162F80910F0184FF07C080911D
:10039000100198E889278093100103C08AE58093B3
:1003A0000F01912FE1E1F1E08D91819391501916A8
:1003B000DCF381E191E0612F1AD01C5F10930F01F3
:1003C0001F910895A82FB92F80E090E041E050EAF6
:1003D000609530E009C02D9182279795879510F0A0
:1003E00084279527305EC8F36F5FA8F30895EADF8E
:1003F0008D939D930895CF93CFB7CF93DF93C395FC
:100400004B9BE9F74B9B0BC04B9B09C04B9B07C019
:100410004B9B05C04B9B03C04B9B01C08EC06F9391
:10042000C0911D01DD27CC5DDE4F2F9365E54B9B11
:1004300003C02F916F91E6CF0F931F934F9320E04E
:1004400040E15F9309B10C7003FB27F93F9350E043
:100450003BE039C01C7040642F77012F5F5F1EC0E6
:10046000406819B11C702F7752501FC0406409B109
:100470002F770C70D1F15F5F00C023C0406219B1CB
:100480002F771C7091F15F5F00C025C00C701027A2
:10049000515012F45D5F0000115027952C3F19B1A7
:1004A000C8F61C700127015027952C3FC8F642273B
:1004B000499309B10C7010274F73115027952C3FA9
:1004C000A8F64695469519B11C7079F001270150A0
:1004D00027952C3F98F66B5A60F3315009B1B0F66E
:1004E00000C011E01CBB00271CC03B503195C31B52
:1004F000D04011E01CBB0881033C21F10B3411F109
:1005000020911B011981110F1213EDCF4A81441F55
:10051000093669F10D3211F0013E29F74F7009F0EB
:10052000042F009322013F915F914F911F910F91F2
:100530002F916F91CCB3C0FD62CFDF91CF91CFBF30
:10054000CF91189520912201222369F31091200167
:100550001123E9F53430EAF13093200120931C0196
:1005600010911D013BE0311B30931D0132C0009101
:100570002001013064F50AE54F7049F43091000123
:1005800034FD28C000930001C4E0D1E027C043300F
:1005900049F030910F0134FD1DC000930F01C0E1FF
:1005A000D1E01CC030913A0134FD14C000933A01EF
:1005B000CBE3D1E013C0052710E000C000000BB969
:1005C0001AC0052710E0221F1DC010E021C04AE517
:1005D00002C032ED432FC4E1D0E032E01AB11C601A
:1005E0005B9A0BB11AB95CE020E865E320FF0527B0
:1005F0000BB9279517951C3FF0F66695B8F7B1F73C
:1006000020FF05270BB9279517951C3FD0F6279596
:10061000179517FF052700001C3F0BB9B0F629916D
:100620003A9519F7037F10912101110FC651D0405F
:100630000BB911F010931B0111E01CBB08601AB13B
:10064000137F402F437F54E05A95F1F70BB91AB945
:100650004BB969CFFC018381813041F480E790E0A0
:1006600090931F0180931E0182E1089582E890E03B
:1006700090931F0180931E0183E40895FC01808103
:100680008076803229F48181803211F48FEF0895D1
:1006900080E00895FC012481358196818181823C2E
:1006A00011F480E10FC0813E11F481E20BC0863964
:1006B00011F483E307C08B3411F487E603C085325D
:1006C00019F48FEC8093C4009930C8F4333008F0EB
:1006D00030E0213009F420E0313011F430E302C081
:1006E0003295307F2695220F220F220F892F90E01E
:1006F0000597880F991F282B232B2093C20081E098
:1007000008951F920F920FB60F9211248F939F930B
:10071000EF93FF938091C1008F7D8093C100789407
:1007200090914F01E92FF0E0EA5BFE4F80818093CA
:10073000C6009F5F90934F0190914F0180914E01B1
:10074000981719F41092200105C08091C1008062B1
:100750008093C100FF91EF919F918F910F900FBEF9
:100760000F901F901895DC0120E030E007C08D91BC
:10077000F901EA5BFE4F80832F5F3F4F2617B8F3E6
:1007800010924F0160934E018FEF80932001809172
:10079000C10080628093C10008951F93222483EFDB
:1007A0008BB98CE08AB91AB880ED8093C40082E0DE
:1007B0008093C00088E98093C100A1DC3C9A7894C2
:1007C00010E0A895ADDC80910F0184FFFACF8091F5
:1007D00003012816B9F0821518F4122D181B02C057
:1007E000182F1195193008F018E090E080509E4FB6
:1007F000612FC6DD80910301810F80930301449A2C
:1008000011E0DFCF112321F080E090E060E0B8DD5F
:100810004498D6CF1F921090C6000F920FB6EF9358
:10082000E22D23947894FF93F2E01082FF91EF91F0
:0C0830000FBE0F901F901895F894FFCF9A
:02083C005AFF61
:00000001FF
